:020000040800F2
:10000000680600209D0100089B2C00086B27000853
:10001000992C0008F1130008A92F00080000000027
:10002000000000000000000000000000552D000846
:100030007D150008000000009D2C00088D2D000893
:10004000B7010008B7010008B7010008B7010008B0
:10005000B7010008B7010008B7010008B7010008A0
:10006000B7010008B7010008B7010008B701000890
:10007000B7010008B7010008B7010008B701000880
:10008000B7010008B7010008B7010008B701000870
:10009000B7010008B7010008B7010008B701000860
:1000A000B7010008B7010008B7010008B701000850
:1000B000B7010008B7010008B7010008B701000840
:1000C000B7010008B7010008B7010008B701000830
:1000D000B7010008B7010008B7010008B701000820
:1000E000B7010008B7010008B7010008B701000810
:1000F000B7010008B7010008B7010008B701000800
:10010000B7010008B7010008B7010008B7010008EF
:10011000B7010008B7010008B7010008B7010008DF
:10012000B7010008B7010008B7010008B7010008CF
:10013000B7010008B7010008B7010008B7010008BF
:10014000B7010008B7010008B7010008B7010008AF
:10015000B7010008B7010008B7010008B70100089F
:10016000B7010008B7010008B7010008B70100088F
:10017000B7010008B7010008B7010008000000003F
:10018000B7010008B7010008DFF80CD000F07EFBD3
:10019000004800476147000868060020064880477D
:1001A00006480047FEE7FEE7FEE7FEE7FEE7FEE75C
:1001B000FEE7FEE7FEE7FEE7012E000889010008E2
:1001C0002DE9F05F0546002092469B46884606468C
:1001D000814640241BE0284641464746224600F01F
:1001E000D7F953465A46C01A914110D311461846C2
:1001F000224600F0BEF92D1A67EB01084F46224651
:100200000120002100F0B5F917EB00094E41201E36
:10021000A4F10104DFDC484631462A464346BDE8E6
:10022000F09F2DE9F0410024061B254671F10006E0
:1002300005DA01240027D0EB070067EB0101161E49
:1002400073F1000605DA0027D2EB0702012567EB00
:100250000303FFF7B5FF86460E4617469C46AC42A1
:1002600004D00025D0EB050E65EB010624B100207B
:10027000D2EB000760EB030C704631463A4663460A
:10028000BDE8F081D2B201E000F8012B491EFBD29B
:1002900070470022F6E710B513460A460446194691
:1002A000FFF7F0FF204610BD421C10F8011B00298B
:1002B000FBD1801A70472DE9FE4F804681EA03008A
:1002C000C00F0C46009021F0004123F00045B8EB30
:1002D0000200A94105D24046214690461C460B46E5
:1002E000024623F00040104347D0270DC7F30A0011
:1002F000C3F30A510290401A019040286BDAC3F30D
:10030000130040F4801B0098924620B10023D2EBEA
:10031000030A63EB0B0B01985946C0F140025046AB
:1003200000F027F906460D4650465946019A00F05E
:100330003FF910EB08006141002487EA115284EA7A
:10034000E7731A4340D0009A62B3019A012A4FEA38
:10035000075215DC001B61EB02014FF0004202EA7C
:100360000752CDE90042001C41F5801132462B4670
:1003700000F076F903B0BDE8F08F40462146F9E77A
:10038000001B61EB0201001C41F5801300185B416A
:100390002018A2F5001747EB030140EAD570B61903
:1003A0006D4111E06D084FEA360645EAC0754FEA27
:1003B0000752001B61EB0201001C41F58011490846
:1003C0004FEA30000019514132462B4603B0BDE8D8
:1003D000F04F00F036B90098012240000023D0EB26
:1003E000020263EBE073009821464FEAE074B8EB39
:1003F000000061EB0401E9E783F000435BE781F073
:10040000004158E72DE9FE4F81EA030404F000445F
:1004100021F0004100944FF0000B23F0004350EA1C
:1004200001045ED052EA03045BD0C3F30A54C1F363
:100430000A552C44A4F2F3340194A0FB0254C1F3F6
:10044000130141F48011C3F3130343F4801301FB40
:10045000024400FB034E840A970A44EA815447EAA7
:100460008357A4FB076802958D0A05FB07854FEAB1
:10047000932C04FB0C542705029D4FEA065847EACB
:100480001637B5EB08056EEB070C870E920E47EAA0
:10049000811742EA8312A7FB0201B6EB0B0164EB62
:1004A00000042B0D43EA0C335E1844EB1C50DA4673
:1004B0005146E7FB0201C5F313044FEA0B3343EA4D
:1004C00014534FEA0432019C43EA0603A4F10C04DE
:1004D0000294009CCDE900B400F0C2F803B0BDE87E
:1004E000F08F00200146F9E700F0004230F00040B4
:1004F0000AD0C10D01F56071C0F3160042EA015146
:10050000C20840071143704700200146704701F0C0
:10051000004330B421F0004150EA010206D00A0D38
:10052000A2F56072C1F31301002A02DC30BC002086
:100530007047440F44EAC104C100E01830BC00EB2E
:10054000C25000F047B830B50B46014600202022CB
:10055000012409E021FA02F59D4205D303FA02F5D0
:10056000491B04FA02F52844151EA2F10102F1DC30
:1005700030BD202A04DB203A00FA02F10020704747
:100580009140C2F1200320FA03F3194390407047D1
:10059000202A04DB203A21FA02F00021704721FAD8
:1005A00002F3D040C2F1200291400843194670473F
:1005B000202A06DBCB17203A41FA02F043EAE07327
:1005C00006E041FA02F3D040C2F120029140084314
:1005D000194670470029A8BF7047401C490008BF52
:1005E00020F00100704710B4B0FA80FC00FA0CF063
:1005F00050EA010404BF10BC704749B1CCF120049B
:1006000021FA04F411FA0CF118BF01212143084327
:10061000A3EB0C01CB1D4FEA00614FEA102042BF53
:10062000002010BC704700EBC35010440029A4BF49
:1006300010BC7047401C490008BF20F0010010BCEE
:10064000704710B5141E73F1000408DA401C41F124
:10065000000192185B411A4301D120F0010010BD46
:100660002DE9F04D92469B4611B1B1FA81F202E0BC
:10067000B0FA80F220329046FFF77BFF04460F4627
:1006800040EA0A0041EA0B0153465A46084313D098
:10069000114653EA010019D0C8F140025046FFF755
:1006A00077FF05460E46504659464246FFF761FF22
:1006B000084305D0012004E020463946BDE8F08D0E
:1006C0000020054346EAE0762C4337430A98630549
:1006D000E40AA0EB08000022FD0A44EA47540A306D
:1006E00002D500200146E9E7010510196941DDE95D
:1006F000084500196941BDE8F04DA2E72DE9F04D2C
:1007000081EA030404F0004B21F0004514464FF049
:10071000000A23F0004150EA050220D054EA010209
:100720001DD0C5F30A570246C5F31303C1F31300E6
:10073000C1F30A5640F4801543F48013A7EB060872
:10074000101BD64608F2FD3873EB050002D308F102
:10075000010801E092185B41B8F1000F03DA0020B4
:100760000146BDE8F08D00204FF480110646844616
:100770000EE0171B73EB050705D3121B63EB050394
:1007800006434CEA010C49084FEA300092185B41DD
:1007900050EA0107EDD152EA030012D082EA0400C8
:1007A00083EA0501084305D0101BAB4106D20122A4
:1007B000002306E000224FF0004302E06FF0010248
:1007C00053101AEB06004CEB085110EB0A0041EBFA
:1007D0000B01BDE8F04DFFF734BF70B521F00043C9
:1007E00003430CD0C1F30A550024D5EB040564EB98
:1007F0000403D617AD1AB34102DB0020014670BDD9
:10080000201841EB025170BD0EB5C10F80EAE070B7
:100810000844CA07002140F233438DE80E000A461F
:100820000B46FFF71DFF03B000BDC1F30A52C1F331
:10083000130140F2FF3341F480119A4202DA0020A2
:100840000146704740F233439A42A2F2334202DC3F
:100850005242FFF79DBEFFF78CBE000030B5041E6C
:1008600071F1000404DB4FF00044404264EB0101ED
:10087000141E73F1000405DB1C464FF00043524286
:1008800063EB0403994208BF904230BD064C074D0C
:1008900006E0E06840F0010394E807009847103450
:1008A000AC42F6D3FFF774FC984B0008B84B000835
:1008B0002DE9F04D00231A461B1A8A4103DB002064
:1008C0000146BDE8F08DC1F30A52C1F3130141F4B2
:1008D00080154FF0000BD10702D100186D41521E58
:1008E0000027044640F2FF11384601EB620A3E46FB
:1008F0008046024600204FF48011FFF749FEC219DE
:100900007141BB1846EB0100B4EB030C75EB000C16
:1009100004D3E41A65EB000517460E46241908F1C6
:1009200001006D4180463428E3DDF91946EB0600ED
:10093000091BA84103D24FF0FF32134601E0002209
:1009400013461BEB070046EB0A51BDE8F04DFFF7DD
:1009500078BE000038B5D02000F062FC3E4C602824
:10096000E07018D064230122A11D3C4801F0A0FED4
:100970003A48E2783AA1B83802F03EFB374982B2F1
:100980006423B839354801F093FE64230122A11D88
:10099000324801F08DFEB621E02000F017FD00BFC7
:1009A00000F07BFCC007FBD100F0B8F8A02000F0FD
:1009B000FDFC082000F0A8FC602000F0E8FC04200A
:1009C00000F0D6FC012000F0BDFCF42000F028FC73
:1009D0006061F22000F024FC616941EA00221F48B6
:1009E00020A14030626102F007FB1C484030FFF755
:1009F0005BFC1A4982B24FF480552B4640311748B0
:100A000001F056FE6069010A490701D01CA100E00F
:100A10001CA110F01C0F009101D019A300E019A334
:100A200010F0E00F01D016A200E016A20B4816A1AC
:100A3000403002F0E1FA09484030FFF735FC074941
:100A400082B22B464031054801F032FEBDE8384005
:100A5000032000F068BC0000000000209C01002082
:100A6000256400000A4D6561737572656D656E746D
:100A700073207374617475733A2025303458000004
:100A80004F4E00004F4646000A54656D7065726116
:100A9000747572653A2025730A50726573737572A6
:100AA000653A2025730A48756D69646974793A203E
:100AB0002573000010B52DED028BB0EE408A00F0DA
:100AC000C1FAC0EE080A10EE900AFFF70DFD41ECE6
:100AD000100B9FED0C1B02F0CBFA9FED0C1B51ECA1
:100AE000100B53EC112BFFF78AFC9FED0A1B53EC04
:100AF000112BFFF787FCFFF70AFDBDEC028B00EE20
:100B0000100A10BDEBE2361AC05BC83F00000000BF
:100B10000000F03F0000000040A5E54070B5D84956
:100B2000882000F0B5FBD64CD6A1A4F16400228841
:100B300002F062FAA4F16400FFF7B6FB82B24FF450
:100B40008055A4F164012B46A1F1400001F0B0FDF5
:100B5000A11C8A2000F097FBB4F90220CDA1A4F1DA
:100B6000640002F049FAA4F16400FFF79DFB82B231
:100B7000A4F164012B46A1F1400001F099FD211D73
:100B80008C2000F080FBB4F90420C6A1A4F164001D
:100B900002F032FAA4F16400FFF786FB82B2A4F1FE
:100BA00064012B46A1F1400001F082FDA11D8E20C1
:100BB00000F06EFBE288BFA1A4F1640002F01CFA11
:100BC000A4F16400FFF770FB82B2A4F164012B462C
:100BD000A1F1400001F06CFD04F10801902000F04B
:100BE00052FBB4F90820B7A1A4F1640002F004FAA2
:100BF000A4F16400FFF758FB82B2A4F164012B4614
:100C0000A1F1400001F054FD04F10A01922000F02E
:100C10003AFBB4F90A20AFA1A4F1640002F0ECF9A8
:100C2000A4F16400FFF740FB82B2A4F164012B46FB
:100C3000A1F1400001F03CFD04F10C01942000F012
:100C400022FBB4F90C20A7A1A4F1640002F0D4F9AE
:100C5000A4F16400FFF728FB82B2A4F164012B46E3
:100C6000A1F1400001F024FD04F10E01962000F0F6
:100C70000AFBB4F90E209FA1A4F1640002F0BCF9B4
:100C8000A4F16400FFF710FB82B2A4F164012B46CB
:100C9000A1F1400001F00CFD04F11001982000F0DA
:100CA000F2FAB4F9102097A1A4F1640002F0A4F9BB
:100CB000A4F16400FFF7F8FA82B2A4F164012B46B4
:100CC000A1F1400001F0F4FC04F112019A2000F0BF
:100CD000DAFAB4F912208FA1A4F1640002F08CF9C1
:100CE000A4F16400FFF7E0FA82B2A4F164012B469C
:100CF000A1F1400001F0DCFC04F114019C2000F0A3
:100D0000C2FAB4F9142087A1A4F1640002F074F9C6
:100D1000A4F16400FFF7C8FA82B2A4F164012B4683
:100D2000A1F1400001F0C4FC04F116019E2000F086
:100D3000AAFAB4F916207FA1A4F1640002F05CF9CC
:100D4000A4F16400FFF7B0FA82B2A4F164012B466B
:100D5000A1F1400001F0ACFCA12000F061FA207686
:100D6000024678A1A4F1640002F046F9A4F16400FF
:100D7000FFF79AFA82B2A4F164012B46A1F1400078
:100D800001F096FC04F11A01E12000F07CFAB4F9BC
:100D90001A2070A1A4F1640002F02EF9A4F16400FD
:100DA000FFF782FA82B2A4F164012B46A1F1400060
:100DB00001F07EFCE32000F033FA2077024669A1BF
:100DC000A4F1640002F018F9A4F16400FFF76CFAD2
:100DD00082B2A4F164012B46A1F1400001F068FC4D
:100DE000E42000F01DFA0646E52000F019FA66F34B
:100DF0001F10E08302465FA1A4F1640002F0FCF83A
:100E0000A4F16400FFF750FA82B2A4F164012B460A
:100E1000A1F1400001F04CFCE62000F001FA0601CF
:100E2000E52000F0FDF946EA1012228455A1A4F154
:100E3000640002F0E1F8A4F16400FFF735FA82B231
:100E4000A4F164012B46A1F1400001F031FCE72040
:100E500000F0E6F984F82200227F4EA1A4F164009C
:100E600002F0CAF8A4F16400FFF71EFAA4F16401CD
:100E70002B46BDE8704082B2A1F1400001F018BCE1
:100E8000400200204449475F54313A202575726E74
:100E9000000000004449475F54323A202564726ED6
:100EA000000000004449475F54333A202564726EC5
:100EB000000000004449475F50313A202575726EAA
:100EC000000000004449475F50323A202564726EAA
:100ED000000000004449475F50333A202564726E99
:100EE000000000004449475F50343A202564726E88
:100EF000000000004449475F50353A202564726E77
:100F0000000000004449475F50363A202564726E65
:100F1000000000004449475F50373A202564726E54
:100F2000000000004449475F50383A202564726E43
:100F3000000000004449475F50393A202564726E32
:100F4000000000004449475F48313A202564726E32
:100F5000000000004449475F48323A202564726E21
:100F6000000000004449475F48333A202564726E10
:100F7000000000004449475F48343A202564726EFF
:100F8000000000004449475F48353A202564726EEE
:100F9000000000004449475F48363A202564726EDD
:100FA0000000000038B500F07FF96946FD2000F030
:100FB0004DF9BDF800002049000482081F48C96AA5
:100FC000C38BA1F59631A2EB0352B0F92030047F18
:100FD00003FB112290F922304C434B434FF4004164
:100FE0009B1201EBE4214B434FF4001101EBA321D1
:100FF000B0F91A3002F58042594301F50051D2137D
:1010000089134A43D1134943007EC9114143B2EBCE
:10101000211001D5002004E04FF0C851884200DDC6
:101020000846001300EE100ADFED050AB8EEC00A0C
:1010300020EE200A38BD0000000000204002002001
:101040000000803A2DE9F04F2DED028B81B09FED2D
:101050006D8A00F029F96946F72000F002F900983E
:101060006A490009009082466748694CC06AB4F931
:101070001050C217411842F1FF30A1FB0123A2FB1F
:10108000058700FB013301FB0033EE1703FB0575F9
:1010900002FB0659B4F90E50A5FB017CEE1706FBC6
:1010A00001C605FB00656E0446EAD7367D0415EBE4
:1010B000080746EB0906B4F90C504FF0000C1CEB86
:1010C000070946EBC505B4F90A60E346A2FB06C86A
:1010D00003FB06834FEAE67702FB0732B4F90830D8
:1010E0004FEA1C26A3FB01C84FEAE37707FB018107
:1010F00003FB00104FEA003146EA02664FEA0C306B
:1011000041EA1C51301841EB2222001CE18842F5D3
:101110000043A0FB017603FB016100FB0B104210B2
:10112000C31752EA030069D0CAF580104108C60708
:10113000B6EB090640F63547A6FB070C61EB050147
:1011400001FB07C1002506FB0511FFF76AF8B4F99A
:101150001650420B42EAC142A5FB027CEE1706FB89
:1011600002C64B1305FB0365A7FB026C05FB02C21D
:1011700007FB0323720E42EAC3125D16B4F9143062
:10118000A3FB007CDE1706FB00C603FB0166FB0C1D
:10119000801843EA46336941C01841EBE6414FEA03
:1011A0001022B4F9120042EA01624FEA21254FEA07
:1011B000E0714FEA011141EA10714FEA0010141872
:1011C0004D411449E0B2A0FB0101134A0023FFF78F
:1011D00028F8210A41EA05614FF47A72A1FB021254
:1011E000401800EE100A9FED0D1AF8EE400A80EE4E
:1011F000810A01B0BDEC028BBDE8F08FB0EE480A69
:10120000F7E700000000000000000020000CFEFFD7
:1012100040020020E1F50500A08601000000C84260
:101220001FB5024600208DF80C004FF480340123D6
:1012300003A88DE81900EC21034800F0B5FC9DF8E7
:101240000C0004B010BD00004801002010B50C4691
:101250000A460146EC2001F0BFFC208840BA2080FD
:1012600010BD10B50C460A460146EC2001F0C4FC46
:101270002068C0F3074100F47F421143C0B241EA45
:101280000040206010BD0A460146EC2001F0A4BCDD
:101290000A460146EC2001F09FBC10B5F320FFF791
:1012A000BFFF00F0090010BD38B56946FA20FFF70E
:1012B000D8FF00989FED131A011110480091CA1031
:1012C0000388B0F90240C3EB2111A2EB430249436A
:1012D000B0F9040062430913D212414302EBA1307A
:1012E0000749C86200EB80008030001200EE100A4F
:1012F000F8EEC00A80EE810A38BD000040020020EE
:10130000000000200000C84210B50446F520FFF799
:1013100087FF04F01C0120F01C000143BDE81040D1
:10132000F52000F053B810B50446F420FFF778FF1D
:1013300004F0030120F003000143BDE81040F42055
:1013400000F044B810B50446F220FFF769FF20F022
:10135000070004F007010143F22000F037F8F42001
:10136000FFF75EFF0146BDE81040F42000F02EB804
:1013700010B50446F420FFF753FF04F01C0120F0E1
:101380001C000143BDE81040F42000F01FB810B568
:101390000446F420FFF744FF04F0E00120F0E000F1
:1013A0000143BDE81040F42000F010B810B5044629
:1013B000F520FFF735FF04F0E00120F0E0000143E5
:1013C000BDE81040F52000F001B800001FB50B4645
:1013D00002468DF80C304FF48034012303A88DE8C9
:1013E0001900EC21014800F0DBFC1FBD4801002082
:1013F000FEE7000010B5002001F072FC04466423F3
:1014000014224949494801F053F94848224648A165
:10141000B83801F0F1FD454982B26423B839434838
:1014200001F046F9202001F05BFC3F4904466423AB
:10143000132215313D4801F03BF93C4822463CA1BE
:10144000B83801F0D9FD394982B26423B839374838
:1014500001F02EF9212001F043FC334904466423B6
:1014600015222931314801F023F93048224630A1B4
:10147000B83801F0C1FD2D4982B26423B8392B4838
:1014800001F016F9232001F02BFC274904466423C0
:101490001A223F31254801F00BF92448224624A1A5
:1014A000B83801F0A9FD214982B26423B8391F4838
:1014B00001F0FEF8242001F013FC1B4904466423CC
:1014C00019225A31194801F0F3F81848224618A198
:1014D000B83801F091FD154982B26423B839134838
:1014E00001F0E6F8012001F0FBFB0F4904466423FC
:1014F000122274310D4801F0DBF80C4822460CA191
:10150000B83801F079FD094982B26423B839074837
:1015100001F0CEF8044964230122BDE810404339AC
:10152000024801F0C5B80000490000209C010020DD
:10153000256400001CB5452000F022F8202001F0B1
:10154000CFFB812800D0FEE7F4208DF80400642052
:101550000090012301AAB421064800F08FFA14205C
:1015600000F00EF80448807801F0F6FB0A2000F045
:1015700007F81CBDF40000200000002070470000A8
:1015800070B5044600F0F6F80546601C02D0044829
:101590000078044400F0EEF8401BA042FAD370BD7E
:1015A000D00000202DE9F84F00224FF0010803255C
:1015B0004FF00F0E0B6808FA02F42340A3426ED1DD
:1015C0004E68012E05D0022E03D0112E01D0122E0E
:1015D00012D186684FEA420C05FA0CF7BE43CF6879
:1015E00007FA0CF7374387604668A6430C79C4F3C3
:1015F0000014944034434460C668570005FA07FC61
:101600008C6826EA0C06BC403443C4604C68022C4B
:1016100001D0122C13D1D40800EB8404A346D4F8D3
:10162000209054074FEAD46A0EFA0AF629EA06090E
:101630000E6906FA0AF646EA0906CBF82060066843
:101640000C7926EA0C0604F00304BC403443046021
:101650004C68E40065D5364C266846F48046266022
:10166000246822F0030604F480440094314C34448E
:10167000A446D4F808489607370F0EFA07F6B44385
:101680002D4EB04201D1002624E02C4EB04201D1B3
:1016900001261FE02A4EB04202D102261AE040E0A5
:1016A000284EB04201D1032614E0274EB04201D1AA
:1016B00004260FE0254EB04201D105260AE0244E53
:1016C000B04201D1062605E0224EB04201D10726E4
:1016D00000E00826BE402643CCF808681E4E346859
:1016E0004F689C43FF0300D51C4334601A4C241DF3
:1016F00026684F689E43BF0300D51E432660164EE2
:10170000083634684F689C43FF0200D51C433460A0
:10171000114E0C3634684F689C43BF0200D51C4301
:101720003460521C102AFFF445AFBDE8F88F00006A
:1017300044380240003001400000024000040240F2
:1017400000080240000C0240001002400014024059
:1017500000180240001C0240003C0140426931EA8E
:10176000020200D10904816170470AB181617047AA
:101770000904FBE70148806870470000D0000020A2
:1017800090F83D007047000070B5040025D094F833
:101790003D00002520B984F83C50204600F098FB1D
:1017A000242084F83D002068016821F001010160D7
:1017B0002068016841F4004101602068016821F45B
:1017C0000041016000F0FAFC4D4A6168914201D885
:1017D0004C4900E04C49884201D2012070BD4B4980
:1017E0002368B0FBF1F15E6826F03F060E435E60B1
:1017F0006368934206D94FF4967359434FF47A7352
:10180000B1FBF3F12368491C1E6A26F03F06314301
:1018100019626168914210D84900401EB0FBF1F294
:10182000521CC2F30B02042A01D2042022E0B0FBB6
:10183000F1F0401CC0F30B001CE0A268F2B301EB16
:10184000C10303EB0116431EB3FBF6F35B1C43F429
:1018500080431B0549D092B301EBC10202EB011199
:10186000401EB0FBF1F0401CC0F30B0040F4804080
:1018700040F400402168CA694CF6FF739A43104354
:10188000C861D4E9071001432068026822F0C00251
:1018900011430160D4E9030101432068826848F2E2
:1018A000FF339A4311438160D4E90501084321685D
:1018B000CA6822F0FF021043C86001E00EE016E0A3
:1018C0002068016841F0010101602564202084F84E
:1018D0003D00256384F83E50002070BD01EB4106B9
:1018E000431EB3FBF6F35B1CB3E70120C2E701EB39
:1018F0004101401EB0FBF1F0401CC0F30B00B7E704
:10190000A086010080841E0000093D0040420F00B7
:101910002DE9FF4F81B089460446FFF72BFF0546AE
:1019200094F83D004FF0010820287DD119230122B1
:1019300050492046009501F077F8002874D194F8BA
:101940003C00012870D0012084F83C002068016828
:10195000C90703D1016841F00101016020680168F5
:1019600021F400610160242084F83D0000262664F3
:101970004148E0624FF0011B20272068016841F4D4
:10198000807101600095002259462046049B01F0B9
:101990004BF850B120680068C00502D54FF40070C4
:1019A0002064032005B0BDE8F08F216809F0FE0037
:1019B0000861FFF7DFFE2168054648694969C0F301
:1019C0004000C1F380214FF0A00A0FE0FFF7D2FEE4
:1019D000411B0498814200D808B984F83DA02168D1
:1019E00048694969C0F34000C1F3802194F83D2063
:1019F000A02A02D008B90029E8D084F83D702068F8
:101A00004169C943890716D4016841F40071016036
:101A100020684169806919230122164920460095F2
:101A200001F002F8B8B900E021E084F83D7084F8D4
:101A30003C600020B6E7016841F400710160216854
:101A40006FF480604861192301220A4920460095FD
:101A500000F0EAFF08B10120A4E7039808F10108AB
:101A600080458AD384F83D7084F83C60F3E7022017
:101A700098E70000020010000000FFFF2DE9F84F7A
:101A80001F4690468A460446DDF82890FFF772FE0E
:101A9000054694F83D0020287FD1192301224049B2
:101AA0002046009500F0C0FF002876D194F83C0055
:101AB000012872D0012084F83C0020680168C90721
:101AC00003D1016841F0010101602068016821F43F
:101AD00000610160212084F83D00102084F83E0060
:101AE00000262664C4F824806785608D20852D48F3
:101AF000E0622B464A465146204600F04FFE90B920
:101B0000206841698069009036E02A4649462046AF
:101B100001F03CF850B1206C042804D12068016821
:101B200041F4007101600120BDE8F88F606A21680E
:101B300000780861606A401C6062618D491E6185A1
:101B4000218D491E89B2218522685369DB435B07D9
:101B50000BD451B100781061606A401C6062608DE6
:101B6000401E6085208D401E20852A46494620461D
:101B700000F034FF0028CED1208D0028C5D154F8C4
:101B80003D0B016841F400710160202004F81E093A
:101B9000E67766770020C7E7FFE70220C4E700008A
:101BA000020010000000FFFF2DE9FF4F83B09A46AE
:101BB000DDE9119793460446DDF84080FFF7DAFD32
:101BC000054694F83D00202870D11923012271495F
:101BD0002046009500F028FF0028F5D194F83C003D
:101BE000012863D0012084F83C0020680168C907FF
:101BF00003D1016841F0010101602068016821F40E
:101C000000610160222084F83D00402084F83E00FD
:101C100000262664C4F82480A4F82A90608D2085CC
:101C20005D48E062CDE9007553465A462046049966
:101C300000F002FE00287CD1208DD0B1012821D0F7
:101C40000228206824D0416980690090208D0328F3
:101C500069D801282BD0514902283B464FF0000299
:101C6000009559D08846204600F0DEFE002860D15D
:101C70003CE02068416981690091016841F400718C
:101C8000016077E02068016821F480610160F0E77D
:101C9000016821F4806101602068016841F40061FD
:101CA0000160206841698069009063E06FE02A4626
:101CB0003946204600F037FF98BB20680069616A0A
:101CC00008704EE02068016841F4007101602068EE
:101CD0000069616A0870606A401C6062218D491E5B
:101CE0002185618D491E6185216838E02068016881
:101CF00021F48061016020680069616A0870606A8F
:101D0000401C6062208D401E2085608D401E6085D5
:101D10003B46002241460095204600F085FE00B972
:101D2000D0E706E0FFE72A463946204600F0FBFEF2
:101D300018B1012007B0BDE8F08F20680069616A22
:101D40000870606A401C6062218D491E2185618D8A
:101D5000491E618521684A69D24352070AD409693C
:101D60000170606A401C6062208D401E2085608D7D
:101D7000401E6085208D00287FF468AF202084F805
:101D80003D0084F83E6084F83C600020D2E70220E9
:101D9000D0E70000020010000000FFFF0400010077
:101DA0002DE9FF4F83B09A46DDE91197934604462B
:101DB000DDF84080FFF7DEFC054694F83D00202862
:101DC0007FD11923012240492046009500F02CFEC6
:101DD000002876D194F83C00012872D0012084F8C4
:101DE0003C0020680168C90703D1016841F0010186
:101DF00001602068016821F400610160212084F8FD
:101E00003D00402084F83E0000262664C4F824806B
:101E1000A4F82A90608D20852C48E062CDE90075F9
:101E200053465A462046049900F084FD70B930E0CC
:101E30002A463946204600F0A9FE58B1206C0428F5
:101E400004D12068016841F400710160012007B0ED
:101E5000BDE8F08F606A216800780861606A401C04
:101E60006062218D491E89B22185628D521E628574
:101E700022685369DB435B070BD469B100781061BA
:101E8000606A401C6062208D401E2085608D401E6F
:101E90006085208D0028CBD12A463946204600F0A7
:101EA0009DFD0028CAD154F83D0B016841F4007132
:101EB0000160202004F81E09E67766770020C6E757
:101EC000FFE70220C3E70000020010000000FFFF50
:101ED000F0B587B0044614216846FEF7DAF92768A2
:101EE000204CDFF87CC01F49122201230325042661
:101EF0001D481034674515D10F6847F002070F6081
:101F0000096801F002010591C0218DE86E00694663
:101F1000FFF748FB206840F400102060206800F4C0
:101F2000001019E0DFF844C0674516D10F6847F08C
:101F300002070F60096801F0020105914FF440614A
:101F40008DE86E006946FFF72DFB206840F48000A5
:101F50002060206800F48000059007B0F0BD00000C
:101F60000054004030380240000402400058004055
:101F7000024881680278114481607047D0000020D7
:101F80000B4810B5016841F400710160016841F42B
:101F900080610160016841F480710160032000F0FC
:101FA00061F8002000F006F800F024F8002010BDD1
:101FB000003C024070B50D4D04464FF47A7128780C
:101FC000B1FBF0F00A490968B1FBF0F000F0F6FA55
:101FD00048B9102C07D200222146501E00F022F8EA
:101FE00000206C6070BD012070BD0000D00000209A
:101FF000DC0000200A4808B5016841F48041016016
:10200000006800F4804000900548001F016841F01E
:1020100080510160006800F08050009008BD000011
:1020200044380240F0B40E4B1B680C46C3F3022345
:10203000C3F10705042D00D90425191D072901D274
:10204000002300E0DB1E012606FA05F1491E2140AF
:1020500099409E40761E16403143F0BC00F0F8BF18
:102060000CED00E0064900F0070208684FF6FF0398
:10207000184040EA0220034A1043086070470000FD
:102080000CED00E00000FA052DE9F0470E460500D2
:1020900065D0DFF81481D8F80000F7B200F00F0027
:1020A000B04207D288F80070D8F8000000F00F00A6
:1020B000B04254D128683D4C810712D5400703D562
:1020C000206840F4E05020602878000703D520689D
:1020D00040F4604020602068A96820F0F0000843C8
:1020E00020602878C0072DD0304968680839012859
:1020F00012D0022813D0032811D0096889070029BB
:102100002DDA216821F0030101432160FFF732FB42
:10211000814641F2883A0EE009688903EFE70968D1
:102120008901ECE7FFF726FBA0EB0901514502D935
:102130000320BDE8F0872068696800F00C00B0EB70
:10214000810FEFD1D8F80010404601F00F01B142E5
:1021500007D90770006800F00F00B04201D00120DD
:10216000E7E72878400705D52068E96820F4E050C3
:10217000084320602878000706D52068296920F4E4
:10218000604040EAC100206000F038F82168084A49
:10219000C1F30311515CC840064908600648006855
:1021A000FFF708FF0020C4E7003C02400838024067
:1021B000EE4A0008DC000020D40000200448054955
:1021C00000680968044AC1F38221515CC840704725
:1021D000DC00002008380240FE4A00080448054997
:1021E00000680968044AC1F34231515CC840704735
:1021F000DC00002008380240FE4A0008154810B5EF
:10220000006810F00C02144813D01449042A0FD0AF
:10221000082A0ED10F4C241F2268236802F03F02C7
:102220005B0207D52068C0F38810A0FB010106E01F
:10223000084610BD2168C1F38811A1FB00010023ED
:10224000FDF7BEFF2168C1F30141491C4900B0FB05
:10225000F1F010BD083802400024F40040787D0100
:102260002DE9F84F04006ED02078DFF83C93C007CA
:10227000A9F104054AD009F104000168C1F3810104
:10228000012908D00068C0F3810002280AD1D9F8DA
:102290000000400206D52868800337D56068002812
:1022A000E1D033E06068B0F5803F10D0B0F5A02FEA
:1022B000286810D020F480302860286820F480201E
:1022C00028606068A8B1FFF755FA06460DE0286857
:1022D00040F48030F4E740F480202860F7E700BF46
:1022E000FFF748FA801B642873D828688003F7D565
:1022F0000CE0FFF73FFA064605E000BFFFF73AFAA9
:10230000801B6428F0D828688003F7D42078DFF891
:102310009C8280074FF0000A3ED5A348001D01684B
:1023200011F00C0F08D00068C0F3810002280BD117
:10233000D9F80000400207D42868800716D5E06865
:10234000012800D112E02BE1E068B8B10120C8F803
:102350000000FFF70FFA064605E000BFFFF70AFA94
:10236000801B0228C0D828688007F7D52868216913
:1023700020F0F80040EAC10028600DE0C8F800A095
:10238000FFF7F8F9064604E0FFF7F4F9801B02288E
:102390001FD828688007F7D42078000722D5824EFE
:1023A00083486169703671B101210160FFF7E2F97C
:1023B000074604E0FFF7DEF9C01B022809D83068A1
:1023C0008007F7D50EE0C0F800A0FFF7D3F9074665
:1023D00005E082E0FFF7CEF9C01B02287DD8306807
:1023E0008007F7D42078400768D5DFF8BCB1002714
:1023F0000BF13C0BDBF80000C0000BD4DBF8001045
:1024000041F08051CBF80010DBF80000012700F00C
:1024100080500090674E3068C00510D4306840F49A
:1024200080703060FFF7A6F9009005E0FFF7A2F991
:102430000099401A022850D83068C005F6D55A4E87
:10244000A0686C3601280FD00528306810D020F025
:1024500001003060306820F004003060A068B8B13E
:10246000FFF788F900900FE0306840F00100F4E7D2
:1024700040F004003060F7E7FFF77CF90099411A5B
:1024800041F28830814266D830688007F4D50EE08A
:10249000FFF770F9009007E0FFF76CF90099411A17
:1024A00041F28830814256D830688007F4D42FB189
:1024B000DBF8001021F08051CBF80010A069C8B300
:1024C0003949091D0968C1F3810102294AD002284E
:1024D000504607D0C8F8600000E03CE0FFF74AF93A
:1024E00004463BE04746C8F86000FFF743F906465C
:1024F00005E000BFFFF73EF9801B02282BD82868B3
:102500008001F7D4D4E907010843A16A2A4A49089F
:1025100002EB0141626A41EA8211084394F82C10EF
:1025200040EA0161C9F8001001203866FFF722F97E
:10253000044606E036E000BFFFF71CF9001B022846
:1025400009D828688001F7D52CE000BFFFF712F901
:10255000001B022802D90320BDE8F88F28688001FB
:10256000F4D41FE00128F7D0D9F80000E26900F4A4
:102570008001914214D1226A00F03F0191420FD1B3
:1025800047F6C071626A0140914209D1A26A00F423
:102590004031914204D1E16A00F07060884201D07C
:1025A0000120D9E70020D7E7043802400000474265
:1025B000800E4742007000400000FFFF10B5401E33
:1025C000B0F1807F01D3012010BD4FF0E0246061A5
:1025D0000F21601700F03CFD0020A0610720206162
:1025E000002010BD70B5040004D094F83900002517
:1025F00010B106E0012070BD84F83850204600F08C
:1026000023F8242084F839002068C16821F400519F
:10261000C160204600F002FC2068016921F490416D
:1026200001612068416921F02A0141612068C16887
:1026300041F40051C160E563202084F8390084F83A
:102640003A00002070BD000010B586B00446142189
:102650006846FDF71EFE13492068884220D11248C3
:102660000021026842F400320260006800F4003089
:1026700005900D481038026842F0010202600068BF
:1026800000F0010005900C2000900220CDE901012E
:10269000032003900720049069460448FEF782FF58
:1026A00006B010BD00440040403802400000024027
:1026B0002DE9F843044690F839001F4616460D46AA
:1026C000202850D1B5B1AEB194F8380001284AD0D5
:1026D000012084F838004FF00008C4F83C80212025
:1026E00084F83900FFF746F8A6848146E68484F82A
:1026F000388026E00120BDE8F883E08C401EE084AD
:10270000A0684B46B0F5805F4FF000024FF08001AB
:102710002046009703D000F015FCE8B90DE000F06A
:1027200011FCC8B928882168C0F3080048602069F6
:1027300008B16D1C05E0AD1C03E0216815F8010B24
:102740004860E08C0028D8D14B460022402120462A
:10275000009700F0F7FB08B10320CCE7202084F8B5
:1027600039000020C7E70220C5E7FEE701684A6993
:10277000D24352050FD46FF480624A61002140F8C1
:10278000301F202242738173026942F00402026109
:10279000017301207047002070470000F8B504461F
:1027A000C06A1E460D461746082807D0012805D0E6
:1027B00010F5803F02D0206B122804D120680168F8
:1027C00041F480710160134600224FF00111204650
:1027D000009600F029F940B120680068C00502D5D4
:1027E0004FF4007020640320F8BD2069B0F5804FDD
:1027F0000ED00620216800EAD51040F0F0000861F4
:1028000033463A460B49204600F042F978B902E0D7
:1028100005F0FE0000E0E8B2216808610549334692
:102820003A46891F204600F033F90028DCD0012009
:10283000F8BD0000080001002DE9F84F04460068CB
:1028400089460B9D01689846174641F480610160F6
:102850002068016841F48071016000954FF0011B10
:102860000022594620460A9B00F0DEF84FF4007A19
:1028700040B120680068C00501D5C4F840A003201D
:10288000BDE8F88F216809F0FE0008612B46284951
:1028900020460A9A00F0FCF8F0BB20684169806984
:1028A00000902A4620460A9900F070F940B1206C49
:1028B00004283AD12068016841F40071016034E0D5
:1028C000FEB2B8F1010F09D02168380A08612A4622
:1028D00020460A9900F05AF90028E8D120680661DC
:1028E0002A4620460A9900F051F90028DFD12068D5
:1028F000016841F48071016000950022594620462C
:102900000A9B00F091F80028B3D1216809F0FF007C
:1029100040F00100086100E007E02B460449204632
:102920000A9A00F0B5F80028AAD00120A8E7000014
:10293000020001002DE9F843044600680D46DDE978
:10294000089701689846164641F4807101604B462D
:1029500000224FF001112046009700F065F848B1C1
:1029600020680068C00502D54FF400702064032081
:10297000BDE8F883216805F0FE0008613B464A4641
:102980001549204600F084F888B9206841698069BB
:1029900000903A464946204600F0F8F848B1206CCD
:1029A000042804D12068016841F40071016001200D
:1029B000DEE7F5B2B8F1010F09D02168300A0861ED
:1029C0003A464946204600F0E1F80028E7D1206861
:1029D00005610020CCE700000200010070B516463A
:1029E0000D4604460DE02046FFF7C0FE08B1012069
:1029F00070BD681C05D0FEF7BDFE801BA84207D83D
:102A000035B120684069C0434007ECD4002070BD58
:102A1000002044F8300F20216173A073216941F038
:102A2000200121612073E2E72DE9F0471E46904620
:102A30000D460446C1F30747DDF8209008E0701CFE
:102A400006D0FEF797FEA0EB0900B0420FD876B192
:102A50002068012F18D0806925EA00000004000CCE
:102A600014D000214145EAD00020BDE8F0870020C5
:102A700044F8300F20216173A073216941F02001D7
:102A8000216120730120F0E74069E5E70121E9E7D2
:102A90002DE9F0479A4691460E46044600254FF030
:102AA0002008C1F3074725E020684069C04340057E
:102AB00014D42068016841F40071016021686FF44A
:102AC00080604861256384F83D8084F83E50206C26
:102AD00040F00400206484F83C501FE0B9F1FF3F4F
:102AE00008D0FEF747FEA0EB0A0149450CD8B9F122
:102AF000000F09D02068012F13D0806926EA00005A
:102B00000004000C0BD0CFE744F8305F84F80D8050
:102B1000A573206940F02000206125730120BDE8E5
:102B2000F0874069EAE72DE9F041002590460E461E
:102B30000446202717E04069C043C0060CD454F86F
:102B4000301B6FF01000486144F810596777A57783
:102B5000206A2062257717E0FEF70CFEA0EB080044
:102B6000B04208D83EB120684169C9434906E2D461
:102B70000020BDE8F08144F8305F6773A5732069D9
:102B800040F02000206125730120F2E770B5164661
:102B90000D4604460DE02046FFF7E8FD08B1012090
:102BA00070BD681C05D0FEF7E5FD801BA84207D864
:102BB00035B120684069C0430006ECD4002070BDE8
:102BC000002044F8300F20216173A073216941F087
:102BD000200121612073E2E73EB54FF4803300927B
:102BE0000224CDE901430A46014601230148FEF7CC
:102BF000DBFF3EBD480100203EB54FF4803300921C
:102C00000324CDE901430A46014601230148FEF7AA
:102C1000CBFF3EBD4801002070B586B01421684648
:102C2000FDF737FB1A480024016841F0800101607C
:102C3000016801F080010591016841F00101016026
:102C4000016801F001010591016841F00201016094
:102C5000016801F002010591016841F0080101607D
:102C600000680C4E00F008004FF4704505900022FB
:102C700029463046FEF779FD01200095CDE9010493
:102C8000694630460394FEF78DFC06B070BD000027
:102C900030380240000C0240FEE7704770470000E9
:102CA0001FB56422042103A88DE807000123022236
:102CB000B4210948FEF778FF9DF80C209DF80D100F
:102CC0009DF80E0041EA02229DF80F30034943EAC5
:102CD0000020C1E903021FBDF40000200000002015
:102CE0001FB54FF49673012203A98DE80E00134619
:102CF0000246B4210548FEF757FF0448FEF740FDA1
:102D00002028FAD19DF80C0004B010BDF40000207A
:102D10001FB50E4947F230504FF496728862752005
:102D20008DF80C0030208DF80D00022103A88DE8ED
:102D3000070001231122B4210548FFF731F80448A8
:102D4000FEF71EFD2028FAD11FBD00000000002064
:102D5000F40000207047000070B50446042800D934
:102D600004240120FFF7BCFF20F07000064D40EA6C
:102D70000410C1B26970012000F018F90120FFF7BA
:102D8000AFFF687070BD000000000020FFF7F0B8D2
:102D900010B592B030216846FDF77BFA14210CA8DB
:102DA000FDF777FA14480024016841F08051016072
:102DB000006800F0805011901048016841F4804193
:102DC00001600068069400F4804011900220009099
:102DD00001200390102004906846FFF741FA0F206D
:102DE000CDE90C040E940F9400210CA81094FFF769
:102DF0004BF912B010BD0000403802400070004096
:102E00000548016841F47001016003494FF000601A
:102E1000803908607047000088ED00E02DE9F0413E
:102E2000044600680169E26821F4405111430161E0
:102E30002169A068E2690843616911430843216878
:102E4000CA6849F20C639A430243CA602068416928
:102E5000A26921F4407111434161E0691927642599
:102E60003226B0F5004F354A354920684FF000084A
:102E700006D0884201D0904236D1FFF7AFF935E055
:102E8000884201D0904202D1FFF7A8F901E0FFF794
:102E900095F961684A18A0FB070148EB0803FDF7A4
:102EA0008FF90146B0FBF5F00201B1FBF5F06FF0D0
:102EB0001803584301EB800006EBC000B0FBF5F0AF
:102EC00000F0F80002EB4002B1FBF5F0584301EBD3
:102ED000800006EBC000B0FBF5F000F007002168B1
:102EE00010448860BDE8F081FFF768F961688B0FD6
:102EF0008A00A0FB0701FDF763F90146B0FBF5F07E
:102F00006FF01802504301EB800006EB0010B0FB9D
:102F1000F5F000F0F002B1FBF5F002EB0012B1FBAE
:102F2000F5F06FF01803584301EB800006EB00103A
:102F3000B0FBF5F000F00F00D1E7000000140140F5
:102F4000001001402DE9F041984617460E46044610
:102F5000069D1DE0681C1BD02DB1FEF70BFCA0EBFD
:102F60000800A84214D92068C16821F4D071C1605A
:102F70002068416921F001014161202084F8390075
:102F800084F83A00002084F838000320BDE8F0817E
:102F90002068006836EA000004D00020B842D9D08A
:102FA0000020F3E70120F9E7FEE7000013B584B045
:102FB000012105AACDE900214FF496740B46024683
:102FC0000294B4210B48FEF7EBFE0A48FEF7D8FB4B
:102FD0002028FAD123460A22B4210648FEF798FC9D
:102FE0000328F7D00348FEF7CBFB2028FAD106B020
:102FF00010BD0000F40000200FB4084B10B504A968
:1030000002AA039801F004F8044602A9002001F086
:1030100096FB204610BC5DF814FB00003F470008FB
:1030200003B401984100009850EAC12018BF042061
:103030004A0D18BF40F0010040F2FF72B2EB515F41
:1030400008BF40F00200012808BF052002B0704709
:103050000907090E002804DB00F1E02080F80014C5
:10306000704700F00F0000F1E02080F8141D704759
:103070002DE9F04D2DED040B2DED0E8B96B0DDE915
:103080002550279CDDF890A025F0004624F000484C
:10309000BAF1000F14BF0121002101EB4502FC49E8
:1030A00053184A1093422AD3002814BF0123002347
:1030B00003EB44030B44F7498B4220D358EA000149
:1030C0009FEDF59B76D0DFF8D8B35D4503D1BAF11B
:1030D000000F05D188E0BAF1000F08BF002100D031
:1030E000012101EB450111F5001F08D8002814BF8C
:1030F0000121002101EB440111F5001F0BD99DEDC9
:10310000261B9DED240B16B0BDEC0E8B04B0BDE864
:10311000F04D00F069BE0027002DBCBFE149884595
:1031200021DAE1498845A8BF02271CDAC3451ADC29
:10313000DE4901EB2851142908DDC1F1340220FADF
:1031400002F101FA02F282420DD108E058B9C1F150
:10315000140228FA02F101FA02F2424503D101F009
:103160000101C1F1020756EA0A0124D1002C22DA3A
:10317000002D18BF022F01D0012F0AD0022000F02D
:103180007FFE16B0BDEC0E8B04B0BDE8F04D00F034
:1031900013BE022000F074FE00F00EFE51EC100B86
:1031A00081F0004141EC100B16B0BDEC0E8B04B069
:1031B000BDE8F08D18E09FEDBEAB9FEDBF8B002802
:1031C00071D1B848804522D105F1804010F58010BA
:1031D00008BFBAF1000F07D0B3450ADC002CA8BF26
:1031E0009DED260BE0DA0DE0B0EE490AF0EE690A3B
:1031F000DAE7002C06DA9DED260B51EC100B81F07E
:1032000000416FE0AE48784490ED000BCCE7D84524
:103210004DD1002C48DA2EB186423AD1BAF1000FD6
:1032200042D126E0BAF1000F13D0022000F028FEB0
:1032300000F0F6FD8DED020B9DED240B8DED000BE6
:1032400010EE900A039961F31E0003909DED020BAE
:10325000AAE78DED02AB9DED240B1AEE901A10EE4D
:10326000900A8DED000B61F31E0003909DED020BA3
:103270009AE78DED028B9DED240B18EE901A10EE5F
:10328000900A8DED000B61F31E0003909DED020B83
:103290008AE709DA9DED240B51EC190B53EC102B46
:1032A000FDF72CFA1EE020E09DED240B7CE7864222
:1032B0001BDAB4F1804F0DD0A4F10050B0F1FF50F3
:1032C00013D1002D11DB9DED240B51EC100B01F0FF
:1032D000D7FB07E09DED240B53EC102B51EC100BAA
:1032E00000F0C2BC41EC100B5EE79DED240B51ECED
:1032F000100B01F029FABAF1000FCDE90E0142D10D
:103300009FED710B46B3A6F1E040B0F17F600CD0A9
:103310005E4538D1002D00DAA7B3022F0CBF012083
:103320004FF0FF30FDF770FADCE7002D01DD002CD7
:103330000DDA002D01DD002C1FDB002D16DA002C2C
:1033400014DB012F08BF9FED620B3FF42DAFB0EEF1
:103350004A0AF0EE6A0A27E7022F18BF002D0CD0A8
:10336000012F0AD1002DFFF61FAF06E0002DB8BFD8
:10337000002C08DA012F3FF417AFB0EE480AF0EE48
:10338000680A11E71BE0012000EBE57050EA070135
:1033900015D0791EB0EE498AF0EE698A084308BF5D
:1033A0009FED4D8B4E480025804570DD4D494E48C0
:1033B000884514DDB0420DDB002C19DB2FE0012025
:1033C00000F05EFD16B0BDEC0E8B04B0BDE8F04D14
:1033D00000F016BDB34502DC002C09DC1FE086427C
:1033E00002DA002C1BDA03E05E452BDD002C16DD33
:1033F000022000F045FD00F013FD8DED020B53ECB3
:103400001A2B51EC180BFCF7FDFFCDE900010399D5
:10341000019861F31E0003909DED020BC4E60220AB
:1034200000F02EFD00F00CFD10EE901A18EE900A40
:103430008DED020B8DED008B61F31E0003909DED71
:10344000020BB1E69DED0E0B53EC192B51EC100B5A
:10345000FCF7D2FF9FED260BCDE9080153EC102BB2
:103460009DED080B51EC100BFCF7CCFF9FED221BE0
:1034700053EC112BFCF7C3FF9DED081B53EC112BF4
:10348000FCF7C0FF9FED1E1B53EC112B3CE08CE0C2
:10349000FFFF1F00FFFF0F00000000000000F03FD3
:1034A0000000F03F0000F07F0000404301FCFFFF00
:1034B000000000000000F07F00000000000000009D
:1034C00086190000000000000000000000000080DD
:1034D000000000000000F0FF000000000000F0BF4E
:1034E0000000E0410000F043FFFFEF3F000000005C
:1034F000000000000000D03F555555555555D53FAB
:10350000000000000000E03FFCF779FF9DED080B94
:1035100041EC1A0B53EC102B51EC100BFCF772FF23
:1035200053EC1A2BFCF76EFF41EC1A0B9FEDFE0BD0
:1035300053EC102B9DED080B51EC100BFCF762FFC8
:1035400041EC1B0B9FEDFA0B51EC1A0B53EC102BBB
:10355000FCF758FF41EC1A0B9FEDF70B53EC102BC7
:103560009DED080B51EC100BFCF74CFF53EC1A2BA4
:10357000FCF742FF41EC1A0B51EC1B0B53EC1A2BDE
:10358000FCF799FE0690CDE906519DED060B53EC34
:103590001B2B51EC100BFCF72FFF53EC1A2BFCF7F5
:1035A0002EFF41EC100B00F0A1B90020B6F5801FF2
:1035B0000EDA9FEDE30B53EC102B9DED0E0B51EC4F
:1035C000100BFCF71FFFCDE90E016FF034000E4623
:1035D00000EB2650A0F2FF37C6F31300DA4940F0A3
:1035E0007F6646F040568842D8BF002408DDD749A0
:1035F0008142C8BF012403DC0024A6F580167F1C8D
:10360000D348784400EBC4000F9690ED00CB9DEDBD
:103610000E0B53EC1C2B51EC100BFCF7EDFE9DED4B
:103620000E0B41EC1B0B53EC1C2B51EC100BFCF75D
:1036300042FE41EC100B51EC190B53EC102BFDF733
:103640005DF841EC1D0B51EC1B0B53EC1D2BFCF7F3
:10365000D9FE41EC1A0BBF488DED10AB78441095A4
:1036600090ED000B4FF0005040EA660000EB844004
:103670008DED080B00F5002009909DED080B53EC33
:103680001C2B51EC100BFCF7B7FE9DED0E1B53EC01
:10369000112BFCF7B4FE41EC100B53EC102B9DEDFD
:1036A000100B51EC100BFCF7ADFE9DED080B41EC3F
:1036B0001C0B53EC102B9DED100B51EC100BFCF779
:1036C000A1FE53EC1B2BFCF79AFE53EC1C2BFCF7D2
:1036D00093FE53EC1D2BFCF795FE41EC1C0B53ECB9
:1036E0001A2B51EC1A0BFCF78DFE41EC1B0B9A4880
:1036F0000621B0EE4B0AF0EE6B0A784400F0E0FAD7
:10370000B0EE401AF0EE601AB0EE41DAF0EE61DA97
:1037100053EC1B2B51EC1B0BFCF774FE53EC1D2BD5
:10372000FCF770FE9DED100B41EC1B0B53EC1A2BBC
:1037300051EC100BFCF7BFFD53EC1C2BFCF762FEA9
:1037400053EC1B2BFCF7B7FD9DED100B41EC1B0B55
:1037500053EC102B51EC100BFCF754FE41EC1D0BFD
:103760009FED7FEB53EC1E2BFCF7A5FD53EC1B2BC1
:10377000FCF7A1FD0890CDE908519DED080B53EC35
:103780001E2B51EC100BFCF737FE53EC1D2BFCF7F6
:1037900033FE53EC1B2BFCF732FE9DED080B41EC86
:1037A0001D0B53EC102B9DED100B51EC100BFCF787
:1037B00029FE41EC1B0B53EC1A2B51EC1D0BFCF7B3
:1037C00021FE9DED080B41EC1A0B53EC102B51EC34
:1037D0001C0BFCF717FE53EC1A2BFCF76CFD41ECAD
:1037E0001A0B51EC1B0B53EC1A2BFCF764FD0C90DD
:1037F000CDE90C519DED0C0B53EC1B2B51EC100B38
:10380000FCF7FAFD53EC1A2BFCF7F9FD41EC1B0B0E
:103810009FED550B53EC102B9DED0C0B51EC100B49
:10382000FCF7F0FD41EC1A0B9FED510B51EC1B0B1B
:1038300053EC102BFCF7E6FD41EC1B0B9FED4E0B00
:1038400053EC102B9DED0C0B51EC100BFCF7DAFD3B
:1038500053EC1B2BFCF72FFD41EC100B4848784430
:1038600000EBC40090ED001B51EC100B53EC112B3E
:10387000FCF721FD41EC1B0B3846FCF7C5FFCDE9F9
:10388000080153EC1B2B51EC1A0BFCF714FD41EC17
:10389000100B3C48784400EBC40090ED00CB51EC99
:1038A000100B53EC1C2BFCF706FD9DED081B53EC95
:1038B000112BFCF700FD0690CDE906519DED080B9C
:1038C00053EC102B9DED060B51EC100BFCF794FD07
:1038D00053EC1C2BFCF790FD53EC1A2BFCF78CFDE2
:1038E00053EC1B2BFCF78BFD41EC100B9DED261BC5
:1038F00053EC102B8DED001B00959DED260B51EC2C
:10390000100BFCF77FFD9DED000B41EC1A0B53EC07
:10391000102B9DED260B51EC100BFCF76DFD9DED72
:10392000061B53EC112B2FE0000000604715F73FFA
:10393000FE822B654715F73F44DF5DF80BAE543E22
:1039400000000000000040438E9803007AB60B0090
:1039500002150000301500003A14000000000000BD
:103960000000000000000840000000E009C7EE3F32
:10397000FD033ADC09C7EE3FF5015B14E02F3EBEC4
:10398000C612000080120000FCF73CFD53EC1A2B1D
:10399000FCF791FC9DED060B41EC1A0B53EC102B40
:1039A0009DED000B51EC100BFCF72CFDCDE90C014B
:1039B0009DED0C0B51EC1A0B53EC102BFCF77BFC20
:1039C000CDE902010C46AA498C422FDB611A08435B
:1039D00018D19DED0C0B53EC102B9DED020B51EC0F
:1039E000100BFCF709FD41EC1B0B9FEDA30B51ECF9
:1039F0001A0B53EC102BFCF75EFC53EC1B2BFCF763
:103A00002DFF2DD2022000F03BFA00F009FA10EE53
:103A1000901A18EE900A8DED020B8DED008B61F37C
:103A20001E0003909DED020BFFF7BEBB944A24F0ED
:103A30000041914214D39349214408437FF4EFACF1
:103A40009DED0C0B53EC102B9DED020B51EC100B6C
:103A5000FCF7D2FC53EC1A2BFCF700FF7FF6DFAC2F
:103A600024F000408849894A002601EB2051824217
:103A70002BDA481C4FF4801121FA00F02044844ACC
:103A8000C0F30A517A44A1F2FF3192ED000B814A52
:103A90008DED080BCA4020EA0202C0F3130040F487
:103AA0008010C1F1140120FA01F60992002CB8BF70
:103AB00076429DED080B53EC102B9DED0C0B51EC59
:103AC000100BFCF799FCCDE90C019DED0C0B51ECB2
:103AD0001A0B53EC102BFCF7EEFB9FED6F0B0890CD
:103AE000CDE9085153EC102B9DED080B51EC100B58
:103AF000FCF788FC41EC1B0B9FED690B53EC102B82
:103B00009DED080B51EC100BFCF77CFC9DED0C0BB4
:103B100041EC1C0B53EC102B9DED080B51EC100BE2
:103B2000FCF76AFC53EC1A2BFCF769FC9FED5E1B5B
:103B300053EC112BFCF766FC53EC1C2BFCF7BBFB86
:103B400041EC1A0B51EC1B0B53EC1A2BFCF7B3FB9B
:103B5000CDE902019DED020B53EC1B2B51EC100B38
:103B6000FCF74AFC53EC1A2BFCF749FC9DED020BC9
:103B700041EC1A0B53EC102B51EC100BFCF742FCF0
:103B8000CDE908014A489DED080B0521784400F075
:103B900097F89DED081B51EC100B53EC112BFCF723
:103BA00031FC9DED021B53EC112BFCF728FCCDE9F9
:103BB00006019DED020B53EC1A2B51EC100BFCF798
:103BC00021FC53EC1A2BFCF776FB9FED3B0B41ECF1
:103BD0001A0B53EC102B9DED060B51EC100BFCF760
:103BE0000BFC9DED060B41EC1B0B53EC102B9DEDDC
:103BF000020B51EC100BFCF705FC53EC1B2BFCF7F4
:103C00007DFD53EC1A2BFCF7F7FB9DED021B53ECEB
:103C1000112BFCF7F1FB53EC192BFCF7F0FBCDE972
:103C2000020101EB065001150029C8BF039015DC05
:103C30009DED020B324651EC100BFCF7CEFDFFF769
:103C4000EFF9042808BF00F0FBF832469DED020BA7
:103C500051EC100BFCF7C1FDCDE902019DED020B0B
:103C600051EC180B53EC102BFCF7CCFBFFF73ABBD5
:103C70000000904000000000FE822B654715973C35
:103C800000CC904000346F3F01FCFFFF0000E03F9C
:103C900008110000FFFF0F0000000000432EE63F68
:103CA000396CA80C615C20BEEF39FAFE422EE63F6B
:103CB000D80F0000000000000000000000000040DD
:103CC00070B504462DED028B4D1E00EBC500B0EE25
:103CD000408AF0EE608A90ED000B35F0060017D0B8
:103CE00053EC182B51EC100BFCF78CFB41EC100B38
:103CF0006D1E04EBC50090ED001B51EC100B53EC56
:103D0000112BFCF7D8FA41EC100B35F00600E7D187
:103D1000022D36D0042D1CD0062D1CBFBDEC028B0D
:103D200070BD53EC182B51EC100BFCF76BFB94EDB2
:103D30000A1B53EC112BFCF7BEFA53EC182BFCF7C3
:103D400061FB94ED081B53EC112BFCF7B4FA41EC2A
:103D5000100B53EC182B51EC100BFCF753FB94EDAC
:103D6000061B53EC112BFCF7A6FA53EC182BFCF7AF
:103D700049FB94ED040B53EC102BFCF79CFA41EC3F
:103D8000100B53EC182B51EC100BFCF73BFB94ED94
:103D9000021B53EC112BFCF78EFA53EC182BFCF79B
:103DA00031FB94ED001B53EC112BFCF784FABDECB6
:103DB000028B41EC100B70BD9FED070B10B553EC5F
:103DC000102B9FED070B51EC100BFCF797FC41EC0F
:103DD000100B10BD000000000000000000000000FB
:103DE000000000000000F03F10B553EC112B51EC27
:103DF000100BFCF760FA41EC100B10BD0000000046
:103E00009FED050B10B553EC102B51EC100BFCF78C
:103E100075FC41EC100B10BD00000000000000001C
:103E20009FED050B10B553EC102B51EC100BFCF76C
:103E3000E9FA41EC100B10BD00000000000000701A
:103E40009FED050B10B553EC102B51EC100BFCF74C
:103E5000D9FA41EC100B10BD00000000000000106A
:103E600002E008C8121F08C1002AFAD17047704743
:103E7000002001E001C1121F002AFBD170470000A1
:103E80000149086070470000E00000202DE9FF5F55
:103E900082B00021DDE90430020DDDF840B00343BB
:103EA00018D044F61050A2F2FF3242431514119874
:103EB00001281FD0A5EB0B00401C5FEA000A4FF061
:103EC00000064E4FDFF83891B046504615D5CAF17E
:103ED000000413E0119801244AA3012801D16FEADC
:103EE0000B010298119AC0E90031C0E9024206B004
:103EF000BDE8F09FCBF10000DFE704460021404A17
:103F0000491842EB0450CDE9001012E0E00707D059
:103F100032463B4640464946FCF774FA804689469D
:103F200032463B4610461946FCF76CFA06460F46E9
:103F30006410002CEAD1DDE90401DDE90023BAF1C7
:103F4000000F06DAFCF75EFA42464B46FCF75AFAD7
:103F500005E0FCF7D3FB42464B46FCF7CFFB04469B
:103F60000E460022284BFCF779FC03D84FF0FF30B7
:103F7000014607E00022254B20463146FCF79BF91D
:103F8000FCF753FC102409E0002C0ADB0A22002372
:103F9000FCF716F9039B30321A55641E50EA0102F1
:103FA000F2D1641C039AC4F111031444119A012A3A
:103FB00003D0012208430DD10AE0084304D00020B9
:103FC0004FF0110B119072E7A3EB0B056D1E0DE086
:103FD0005B4504DD4FF0000205F1010504E003DA62
:103FE0004FF00002A5F10105002AECD002981199CA
:103FF000C0E90231C0E9004579E700000000144043
:104000000000F03F300000000000F0430000E03FFF
:104010002DE9FF4F95B09B468946064600250FE2E5
:10402000252877D100242746F84A0121059400E08D
:10403000044316F8013F203B01FA03F01042F7D188
:1040400030782A2811D06FF02F033078A0F1300299
:10405000092A16D8059A44F0020402EB820203EB07
:1040600042021044761C0590EFE759F8042B0592A4
:10407000002A03DA504244F40054059044F002044C
:10408000761C30782E2816D116F8010F44F004045F
:104090002A280DD06FF02F023078A0F13003092BC1
:1040A00009D807EB870302EB4303C718761CF3E735
:1040B00059F8047B761C30786C280FD006DC4C282D
:1040C00017D068280DD06A2814D104E0742810D0C5
:1040D0007A280FD10DE044F400140AE044F480146F
:1040E00001E044F440147278824202D104F5801455
:1040F000761C761C307866280BD013DC582877D0D5
:1041000009DC002875D04528F6D04628F4D0472889
:104110001AD19DE118E0632835D0642879D065284C
:1041200012D195E1702873D008DC6728F1D0692896
:104130006FD06E280DD06F2806D1B5E073282CD033
:10414000752875D0782874D05A46179990476D1CF9
:1041500075E1C4F30250022809D003280DD0D9F824
:10416000001004280DD00D6009F1040967E1D9F8A9
:104170000010EA17C1E90052F6E7D9F800100D80E7
:10418000F2E70D70F0E719F8041B8DF8001000201D
:104190008DF80100EA46012003E059F804AB4FF026
:1041A000FF3061074FF0000102D40DE008F101017A
:1041B0008846B9420FDA8045F8DB1AF80810002962
:1041C000F4D108E008F1010188468142FADB1AF8CF
:1041D00008100029F6D105985B46A0EB0807214698
:1041E0003846179A00F094FA284400EB080507E0D7
:1041F0004DE029E10DE01AF8010B5A461799904756
:10420000B8F10108F7D25B4621463846179A13E108
:1042100042E00A220092C4F302524FF0000A022A3E
:1042200008D059F804CB032A4FEAEC710AD00DE00C
:1042300029E02AE009F1070121F00702F2E802C1B2
:10424000914609E00FFA8CFC4FEAEC71042A03D185
:104250004FFA8CFC4FEAEC71002907DA0A4600217C
:10426000DCF1000C61EB02012D2202E0220504D5F5
:104270002B228DF80420012203E0E20701D0202246
:10428000F7E7904659E00A2102E010220DE01021E4
:104290004FF0000A00910BE010224FF0000A44F0AA
:1042A00004040827009203E008224FF0000A00925D
:1042B000C4F30252022A05D059F804CB0021032A84
:1042C00008D009E009F1070121F00702F2E802C174
:1042D000914605E01FFA8CFC042A01D10CF0FF0C7A
:1042E0004FF00008220728D5702806D0009B83F0E5
:1042F000100353EA0A0305D00EE040228DF8042093
:10430000012208E05CEA010206D030228DF8042088
:104310008DF8050002229046009B83F0080353EAC3
:104320000A030AD15CEA010201D1620705D53022F5
:104330008DF804204FF001087F1E582804D034A0C7
:1043400003900EA802900DE036A0F9E753466046B0
:10435000009AFBF735FF84460398825C0298401E62
:10436000029002705CEA0100F0D1029806A9081AD6
:1043700000F1200A600702D524F4803400E0012710
:10438000574502DDA7EB0A0000E0002000EB0A0120
:10439000009005984144401A0590E00306D45B461E
:1043A0002146179A059800F0B3F90544002706E066
:1043B00001A85A46C05D179990476D1C7F1C474560
:1043C000F6DBE0030CD55B462146179A059800F012
:1043D0009FF9054404E030205A46179990476D1C18
:1043E0000099481E00900029F5DC08E00298029927
:1043F0005A460078491C0291179990476D1CBAF1F2
:104400000001AAF1010AF1DC65E1000009280100C0
:10441000303132333435363738396162636465663A
:1044200000000000303132333435363738394142FC
:10443000434445460000000000F058F90544761C4E
:10444000307800287FF4ECAD19B02846BDE8F08F35
:10445000620700D4062709F1070222F0070CFCE8E6
:104460000223E14603F000485FEA080C02D00FF295
:10447000702C0DE05FEA045C02D50FF2682C07E0B7
:104480005FEAC47C02D00FF2602C01E0AFF2700C46
:104490004FF0FF3823F00043CDF850C065280CD012
:1044A00006DC452809D046281DD047283DD13DE0EF
:1044B000662818D067287ED138E00021112F01DB53
:1044C000112000E0781CCDE9000106A90EA8FFF735
:1044D000DDFCDDE90F010E9A03910021009207F146
:1044E000010A04914DE04FF000400097CDE9011022
:1044F00006A90EA8FFF7CAFCDDE90F0203920E9B86
:1045000011990022DDF80CA00093049211B9791CD6
:1045100000EB010AB7EB0A0004D4C0F1FF3007F149
:10452000010A0490AAEB0700019044E0012F00DA91
:1045300001270021112F01DD112000E03846CDE9CF
:10454000000106A90EA8FFF7A1FCDDE90F010E9AF4
:104550000391002104910092BA4621070CD40399DB
:10456000514500DA8A46BAF1010F05DD009AAAF139
:104570000101515C302908D0B84202DA10F1040F71
:1045800006DA0121CDE9011015E0AAF10101E9E700
:10459000002805DC049901440491AAEB000102E023
:1045A000411C514500DD8A460499401A401C019087
:1045B0004FF000400290200704D40198504501DBE1
:1045C000CDF8048000208DF84F0002980DF14F07C0
:1045D000B0F1004F25D02B200E9002984FF002082A
:1045E00000280CDA404202902D200E9007E00A21AC
:1045F0000298FBF7A8FF3031029007F8011DB8F1CF
:104600000001A8F10108F2DC02980028EFD1791E20
:104610000E980870307800F0200040F0450007F850
:10462000020D12A8C01B00F107081498007800B111
:10463000012000EB0A01019801EBE071059841446B
:10464000401A401E0590E00306D45B462146179AA7
:10465000059800F05DF805441498007818B15A46A2
:10466000179990476D1CE00324D55B462146179AA5
:10467000059800F04DF805441CE00498002807DB7D
:10468000DDE90301884203DD0098405C179901E0F1
:10469000179930205A469047049805F10105401CAF
:1046A00004900198401E019004D12E205A4617997B
:1046B00090476D1CBAF10001AAF1010ADDDC05E0AA
:1046C00017F8010B5A46179990476D1CB8F1000175
:1046D000A8F10108F4DC5B462146179A0598ABE681
:1046E0002D0000002B000000200000002DE9F0410B
:1046F000044600251E461746880404D405E03946C2
:104700002020B0476D1C641EF9D52846BDE8F08115
:104710002DE9F041044600251E469046C80301D508
:10472000302700E02027880404D505E041463846BC
:10473000B0476D1C641EF9D52846BDE8F0810A68B3
:10474000531C0B601070704782B0CDE9000121F05E
:10475000004001909DED000B02B051EC100B704732
:104760002DED048B84B0FDF70BFCFEF711FBFEF77B
:1047700053FA9F489D499F4E00240160C0E901649F
:104780000D14C0E9034544618461C4610462FCF70F
:10479000FBFF9748984954300160C0E90164C0E9C3
:1047A000034544618461C4610462FCF7EDFF9048F5
:1047B0009249A83001604FF41651C0E901140C2150
:1047C000C460C0E904418461C461FDF70BFF0122AC
:1047D0008B4C160331462046FCF7C7FFFCF7AAFEB8
:1047E000012251032046FCF7C0FFFEF791FA012297
:1047F00029462046FCF7B9FFFCF7FCFD0122D10356
:104800002046FCF7B2FFFCF7A5F8DFF8F8814FF07F
:104810000009B246A346DFED7C8A9FED7C9ADFED6E
:104820007C9A7849724864230122891DA830FDF7DB
:104830003FFFFEF735FA73496D4864230A223E3183
:10484000A830FDF735FF6A484A4672A11038FEF7D6
:10485000D3FB674982B21039642301F1B800FDF738
:1048600027FF68496248642306223031A830FDF7EB
:104870001FFF5F4867A11038D8F81020FEF7BCFB77
:104880005B4982B21039642301F1B800FDF710FFD3
:104890005C495748642307223731A830FDF708FFE9
:1048A00053485CA11038D8F80C20FEF7A5FB5049FE
:1048B00082B21039642301F1B800FDF7F9FEFCF76C
:1048C000F3FC88ED060A10EE100AFBF70DFE41EC32
:1048D000100B474853EC102B4FA1E830FEF78CFB30
:1048E0004348E830FBF7E0FC414982B2E8315346E7
:1048F000A1F14000FDF7DCFEFCF7A4FBB0EE408A1E
:1049000088ED070A28EE280A10EE100AFBF7ECFDE6
:10491000C8EE090A06460F4610EE900AFBF7E4FDC2
:1049200004460D4618EE100AFBF7DEFD41EC100BB5
:104930008DE8F0002E4853EC102B3DA1E830FEF737
:104940005BFB2B48E830FBF7AFFC294982B2E8312A
:104950005346A1F14000FDF7ABFEB0EE690AFCF74B
:10496000A9F888ED080A10EE100AFBF7BDFD41EC2E
:10497000100B1F4853EC102B37A1E830FEF73CFB1F
:104980001B48E830FBF790FC194982B2E8315346E6
:10499000A1F14000FDF78CFEFCF704FB88ED090A4D
:1049A00010EE100AFBF7A0FD41EC100B104853EC81
:1049B000102B2EA1E830FEF71FFB0D48E830FBF767
:1049C00073FC0B4982B2E8315346A1F14000FDF778
:1049D0006FFE4FF47A70FCF7D3FD4FF40041584658
:1049E000FCF7BCFE09F101091BE700000054004080
:1049F000F4000020A0860100005800400044004060
:104A0000000C024000000020CA9F443A00007A4493
:104A100020607749256400000A54656D70657261F5
:104A2000747572653A20252E3366202A43000000F3
:104A30000A50726573737572653A20252E336620AD
:104A400050613B20252E3366206850613B20252E87
:104A50003366206D6D4867000A416C746974756433
:104A6000653A20252E3366206D0000000A48756DDA
:104A700069646974793A20252E3366202525000063
:104A800000B52DED048B83B041EC190BFBF710FF43
:104A900041EC180B18EE100A18EE901A8DED008BF1
:104AA000002818BF0120084320F00040C0F17F60BB
:104AB00000F1E040C00F14D019EE101A19EE900A60
:104AC0008DED009B002918BF0121084320F0004014
:104AD000C0F17F6000F1E040C00F04BF0120FFF78C
:104AE000CFF951EC180B03B0BDEC048B00BD0000F6
:104AF000000000000000010203040607080900008E
:104B00000000010203040000000000000000F03F6C
:104B1000000000000000F83F00000000000000005E
:104B20000000004003B8E23F000000000000000069
:104B300006D0CF43EBFD4C3E033333333333E33FF7
:104B4000FFAB6FDBB66DDB3F4D268F515555D53F23
:104B500001411DA96074D13F65DBC9934A86CD3FF1
:104B6000EF4E454A287ECA3F3E5555555555C53FDF
:104B700093BDBE166CC166BF2CDE25AF6A56113FD1
:104B8000F16BD2C541BDBBBED0A4BE726937663ED3
:104B90000000000000000000B84B000800000020EA
:104BA000E4000000603E00089C4C0008E400002087
:104BB00084050000703E00080000010000000A0D9E
:104BC00000000000000000000000000000000000E5
:104BD00000000000000000000000000000000000D5
:104BE00000000000000000000A434F323A20000A93
:104BF000564F433A20000A436F756E7465723A202F
:104C0000000A0D4343533831312073746174757356
:104C10002069733A20000A0D43435338313120682C
:104C2000775F69642069733A20000A0D4343533863
:104C300031312076657273696F6E2069733A200096
:104C40000A0D43435338313120626F6F742076650B
:104C50007273696F6E2069733A20000A0D434353E3
:104C6000383131206170702076657273696F6E2003
:104C700069733A20000A0D434353383131206D6F78
:104C800064652069733A20000100000010000000F4
:0C4C9000000000000024F4000000000000
:040000050800018965
:00000001FF
